:020000022000DC
:1060000000000120756302005D6302005F6302000F
:106010006163020063630200656302000000000028
:1060200000000000000000000000000067630200A4
:1060300069630200000000006B6302006D630200F0
:10604000B9A902006F630200ADB602006F630200DF
:106050006F6302006F630200CDB302006F63020042
:106060006F6302006F6302002D5F03006F63020025
:106070006F6302006F6302006F6302006F630200D0
:106080006F63020075A50300F17903006F630200DE
:10609000E5A503006F630200CD4D03006F630200AE
:1060A0006F6302006F6302006F6302006F630200A0
:1060B00001B802006F630200000000000000000051
:1060C0006F63020019B802006F6302006F63020081
:1060D0006F6302006F6302006F6302000000000044
:1060E00000000000000000000000000000000000B0
:1060F00000000000000000000000000000000000A0
:10610000000000000000000000000000000000008F
:10611000000000000000000000000000000000007F
:10612000000000000000000000000000000000006F
:10613000000000000000000000000000000000005F
:10614000000000000000000000000000000000004F
:10615000000000000000000000000000000000003F
:10616000000000000000000000000000000000002F
:10617000000000000000000000000000000000001F
:10618000000000000000000000000000000000000F
:1061900000000000000000000000000000000000FF
:1061A00000000000000000000000000000000000EF
:1061B00000000000000000000000000000000000DF
:1061C00000000000000000000000000000000000CF
:1061D00000000000000000000000000000000000BF
:1061E00000000000000000000000000000000000AF
:1061F000000000000000000000000000000000009F
:10620000354936480A1A02D0072291438D4634494F
:1062100034480A1A06D00722914381F309880222E2
:1062200082F3148830483149314A00F044F831484B
:106230003149324A00F03FF831483249324A00F0E1
:106240003AF832483249334A00F035F83248334997
:10625000334A00F030F833483349344A00F02BF821
:1062600033483449344A00F026F83448344900228F
:1062700000F02CF833483449002200F027F8334866
:106280003349091A082902DB002202604160314AC1
:1062900090471F481F49884205D00268043003B464
:1062A000904703BCF7E700208646EC46002000211B
:1062B000294A9047FEE7884207D0521A05D0037852
:1062C00001300B700131013AF9D17047884202D098
:1062D00002700130FAE770470000012000E0002062
:1062E0000000012000000120DCD50300AC2A0020C2
:1062F000302C0020D0630200D0630200ECB1030018
:10630000DCD50300AC2A0020AC2A00203CB30300FB
:106310003CB303003CB303003CB303003CB30300B5
:106320003CB303003CB303003CB30300DBD50300E4
:1063300060D70300302C0020302C0020302C0020AF
:10634000704A0020704A0020704A0020704A0020E5
:10635000706A00209D63020015D80200FEE7FEE788
:10636000FEE7FEE7FEE7FEE7FEE7FEE7FEE7FEE705
:1063700000F002B8FFF7FCBF0F484FF00701884359
:1063800085460E4880470E48016841F4700101605F
:10639000BFF34F8FBFF36F8FFFF732BF09480A4932
:1063A0000A4A884207D0521A05D0037801300B7090
:1063B0000131013AF9D1704700000120D99B020058
:1063C00088ED00E028B30300982A0020AC2A0020C2
:1063D00000B585B00190019B002B0AD0074B43F01C
:1063E00001030393019B9B010293039B029898472F
:1063F00000E000BF05B05DF804FB00BF50B3030030
:1064000000B583B00190019B002B0AD04FF47A7045
:10641000FFF7DEFF019B013B0193019B002BF5D1B0
:1064200000E000BF03B05DF804FB08B50AF084FF8C
:1064300000BF08BD00B589B0039002910192019B95
:10644000002B33D00023079303230693029A079B64
:106450001344019A194600200AF0F8FE0590079AA5
:10646000059B13440793019A059BD31A0193059B3F
:10647000002B13D10F4B1B7883F00103DBB2002BF1
:1064800013D10120FFF7BCFF069B013B0693069B3F
:10649000002B03D1074B00221A7007E0054B0122A5
:1064A0001A70019B002BD1D100E000BF00BF09B0E2
:1064B0005DF804FB302C002000B585B003900291FC
:1064C000054B00934023054A0299039800F012F807
:1064D00000BF05B05DF804FB35640200342C0020D9
:1064E00082B0019000BF02B0704782B0019000BF3F
:1064F00002B0704700B5A1B00590049103920293D9
:10650000049802F04BFA039B1593029B1693002309
:10651000179300238DF8603000231993229B1A9360
:1065200000231F930FA91F9B0822049802F010FB61
:1065300008231F93119B1293BDF84030ADF84C30E7
:10654000BDF84230ADF84E3000238DF851309DF843
:106550003C3003F00303DBB2012B26D10F9BC3F3C6
:1065600095231C939DF83C30C3F3C203DBB28DF836
:106570005030BDF83C30C3F38313DBB21B931B9B3D
:106580009A0009A91F9B049802F0E2FA1B9B9B004A
:106590001F9A13441F9312AA09A915AB009313461F
:1065A0001B9A1C9800F03EFF2FE09DF83C3003F052
:1065B0000303DBB2022B28D1BDF83E30C3F38913AD
:1065C0009BB21E939DF83C30C3F3C203DBB28DF83F
:1065D00050301E9B082B28BF08231D9307A91F9B23
:1065E0001D9A049802F0B4FA1F9A1D9B13441F933E
:1065F0001E9A1D9BD31A1E9315AB12AA07A81D99AC
:1066000000F0B2FF1E9B002BE3D1049802F0D5F9F5
:1066100000BF21B05DF804FB82B00190019BDB68F4
:1066200001225A7100BF02B07047000000B583B06C
:106630004FF0FF330193FFF7F8FE0421084800F004
:106640000BFE0190019B002B03DA0649412005F067
:1066500043FD0348FFF7E0FF00BF03B05DF804FB14
:1066600018B3030068B3030000B583B00190009134
:10667000019B1B681B6800990198984700BF03B0F5
:106680005DF804FB00B583B00190019B1B685B685B
:106690000198984700BF03B05DF804FB00B583B0D4
:1066A0000190019B1B689B680198984700BF03B04D
:1066B0005DF804FB82B001900B468DF80330019B1E
:1066C000DB689DF803201A7100BF02B0704782B0EA
:1066D0000190019BDB681B79184602B0704782B0BD
:1066E0000190019BDB6801225A7100BF02B0704724
:1066F00082B00190019BDB685B79184602B070475D
:1067000000B585B001900091154BFF229A60144BA3
:1067100000221A60124B00225A60114B0022C3F86B
:1067200018240F4B0022C3F814240D4B002283F8C9
:1067300020240C4802F096F80390039B002B01D014
:10674000039B08E0084802F0C1FA084A084BD31A34
:10675000DB0802930023184605B05DF804FB00BF78
:10676000DC2D002074B20300E0B3030018B3030073
:1067700088B20300024A034BD31ADB08184670475D
:1067800018B3030088B2030000B587B001900B4630
:106790008DF803309DF80330002B1FD0FFF7EAFF80
:1067A00004900023059313E0059B9B000E4A1344BD
:1067B0000393039B1B881A46019B1B689A4204D1D2
:1067C000019B059A1A60002309E0059B013305939C
:1067D000059A049B9A42E7D3052300E0002318465C
:1067E00007B05DF804FB00BFAC2A002000B585B0FF
:1067F00001900B468DF803309DF8032001AB114644
:106800001846FFF7C1FF0346002B07D1019BDB00B1
:10681000054A13440393039B1B6800E000231846BA
:1068200005B05DF804FB00BF88B2030084B001909E
:106830000B468DF80330019BDB00174A134402938B
:106840009DF80330013B032B1CD801A252F823F022
:106850006168020069680200716802007B680200DA
:1068600002238DF80F3011E004238DF80F300DE076
:10687000029B1B798DF80F3008E0029B5B798DF845
:106880000F3003E000238DF80F3000BF9DF80F306C
:10689000184604B0704700BF88B2030084B001906E
:1068A000009100238DF80F30019B1B7803F0040347
:1068B000DBB2002B24D0019B1B78C3F30103DBB2B6
:1068C000012B02D0022B0CD017E0009B1B68019A11
:1068D0001288C2F38312D2B213449A1C009B1A602E
:1068E0000BE0009B1B68019A5288C2F3891292B296
:1068F00013449A1C009B1A6000BF01238DF80F30CF
:106900009DF80F30184604B07047000000B58BB0FA
:106910000023ADF826303E4801F0A3FA3D4801F0CF
:10692000A0FA3D4B5B6804933B4B9B680693049A2B
:10693000069B134002339B00374A134404330893E9
:1069400004AB19460898FFF7A9FF0346002B09D0AE
:10695000049A069B134002339B002F4A13440433CE
:106960000893EDE700BF0023079311E0049B5A1C36
:106970000492069A1340079A920001A90A442649F4
:1069800002339B000B445B681360079B0133079342
:10699000079B012BEAD99DF80430C3F30103DBB256
:1069A000012B10D0022B1CD1BDF80A30ADF82630D7
:1069B000BDF80630C3F389139BB203339A08049BD6
:1069C0001344049313E0BDF80A30ADF82630BDF847
:1069D0000430C3F38313DBB21A46049B13440493BD
:1069E00005E00E494FF4BF7005F076FB00BF094883
:1069F00001F043FA0590059B002B02D0049B064A48
:106A00005360BDF8263018460BB05DF804FB00BF9C
:106A1000F4310020F0310020DC2D0020F0B3030021
:106A200000B585B00021074801F068F90390039B89
:106A30000293029B83F310030193019B184605B058
:106A40005DF804FBF831002000B589B00390029195
:106A500001920093039B1B0C0793FFF7E1FF069045
:106A6000FFF788FE0246079B934204D3214940F278
:106A7000A31005F031FB069B1904009B5A1C0A9BCE
:106A80001340079A0A431C4902339B000B445A6087
:106A9000009A0A9B134002339B00174A13440433A5
:106AA0000593039B03F00703D9B2059A137861F3AA
:106AB000C5031370019B03F00F03D9B2059A138825
:106AC00061F389131380029BC3F31501059A1368C0
:106AD00061F39F231360059A1378012161F3010389
:106AE0001370059A13786FF38203137000BF09B017
:106AF0005DF804FBF0B30300DC2D002000B58DB081
:106B00000390029113468DF80730039B02330A93DA
:106B100001238DF8273000238DF81B300DF11B0366
:106B2000184600F01BFF404B1A68029B1A603E4B50
:106B30009A683D4B59683C4B1B68CB1A1344013390
:106B40000B9314E00121394801F04FF9FFF7DEFE05
:106B500007900799354801F048F9334B9A68324B52
:106B60005968314B1B68CB1A134401330B930A9AB3
:106B70000B9B9A42E6D89DF82730002B48D0002383
:106B800005939DF80730002B17D09DF81430012293
:106B900062F301038DF814309DF8143043F00403C0
:106BA0008DF81430039B03F00F03DAB2BDF81430F4
:106BB00062F38913ADF8143016E09DF81430022208
:106BC00062F301038DF814309DF8143043F0040390
:106BD0008DF81430039BC3F309039AB2BDF8163045
:106BE00062F38F13ADF816300F4B1A680E4B9B688B
:106BF000134002339B000C4A134404330893059A54
:106C0000089B1A60084B1A680A9B1344064A1360D3
:106C10009DF81B30184600F0B7FE9DF82730184647
:106C20000DB05DF804FB00BFDC2D0020F831002022
:106C300000B587B00190244B93F82034002B02D18B
:106C4000019B002B01D1019B39E0019813F083FFD8
:106C500003460133049304AA03A901231B4802F04D
:106C600053F80346002B29D1039B049A0199184637
:106C700013F0F3FE039A049B013B134400221A70A5
:106C8000049B1946114802F0BFF80590059B002BA4
:106C900004D00F4940F20A2005F01EFA049B194661
:106CA0000A4802F0E4F80590059B002B04D008493F
:106CB00040F20E2005F010FA039B00E00023184676
:106CC00007B05DF804FB00BFDC2D0020E0B303003B
:106CD000F0B3030000B58BB00590049103920293CA
:106CE0001F4B9B68079306AB012219460298FFF7DA
:106CF00005FF0346002B24D0069B02330993002393
:106D0000089311E0089B9B00039A1A44099B591CA5
:106D1000099107990B401268114902339B000B44FB
:106D20005A60089B01330893089A029B9A42E9D360
:106D3000069A079B00931346029A04990598FFF759
:106D400083FE074B93F82034002B05D000BF00F0E2
:106D50007BF80346002BFAD100BF0BB05DF804FBB3
:106D6000DC2D002000B583B00190009100230022AB
:106D700000990198FFF7AEFF00BF03B05DF804FB78
:106D800000B587B0039002910192019B059305AA7B
:106D9000012302990398FFF79DFF00BF07B05DF83C
:106DA00004FB00B587B00390029101920093019B10
:106DB0000493009B059304AA022302990398FFF70A
:106DC00089FF00BF07B05DF804FB00B589B00390F0
:106DD000029101920093019B0593009B06930A9BED
:106DE000079305AA032302990398FFF773FF00BFD7
:106DF00009B05DF804FB00B58BB0039002910192DD
:106E00000093019B0593009B06930C9B07930D9B9E
:106E100008930E9B099305AA052302990398FFF78F
:106E200059FF00BF0BB05DF804FB0000054B5A682A
:106E3000044B1B689A420CBF01230023DBB21846A7
:106E4000704700BFDC2D002000B599B0FFF7EEFFC2
:106E50000346002B01D00023BEE19B4B0022C3F868
:106E60001824BFF34F8F00BF974B5B680493964B7A
:106E70009B681093049A109B134002339B00924A24
:106E80001344043311930023179300231693002314
:106E90000F9304AB19461198FFF700FD0346002B32
:106EA00019D0894BD3F81834002B14D1864B1A68AB
:106EB000049B9A4205D8844B1B68834A5360002385
:106EC0008AE1049A109B134002339B007E4A1344CC
:106ED00004331193DDE70023159311E0049B5A1C42
:106EE0000492109A1340159A920001A90A44764917
:106EF00002339B000B445B681360159B01331593B1
:106F0000159B012BEAD99DF8043003F00303DBB293
:106F1000022B40F09C80BDF80630C3F389139BB26E
:106F20000D93BDF80630C3F389139BB2502B28BFD5
:106F300050239BB20C930C9BC3F309039AB2BDF888
:106F4000063062F38F13ADF806300C9B08330B93B9
:106F50009DF80430C3F3C203DBB20F930B995B4877
:106F600001F08BFC1790179B002B00F0D180179835
:106F700001F014FD01A9169B0822179801F0CAFD23
:106F8000169B08331693049BDA43109B134001337E
:106F90009B000A930C9A0A9B9A4242D90A9B002BA7
:106FA00008D0049A109B134002339B00464A1344B6
:106FB000043300E0464B08930A9B002B02D00A9B47
:106FC000DBB201E00C9BDBB28DF81F300A9B002B7B
:106FD00001D03F4B00E0002306930A9B002B06D014
:106FE0000C9BDAB20A9BDBB2D31ADBB200E00023BF
:106FF0008DF817309DF81F20169B0899179801F0FF
:1070000089FD9DF81F30169A13441693069B002B9A
:1070100016D09DF81720169B0699179801F07AFD57
:107020000EE0049A109B134002339B00264A13443F
:1070300004330993169B0C9A0999179801F06AFD7D
:107040000D9B03339A08049B1344049360E09DF85E
:10705000043003F00303DBB2012B59D1BDF8043037
:10706000C3F38313DBB2062B28BF0623DAB2BDF8C5
:10707000043062F38913ADF80430BDF80430C3F373
:107080008313DBB202330E939DF80430C3F3C203C3
:10709000DBB20F930E9B9B0019460C4801F0EDFBF1
:1070A0001790179B002B33D0179801F077FC01A99C
:1070B000169B0822179801F02DFD169B0833169396
:1070C000002315931BE000BFDC2D002074B20300E9
:1070D000E82D0020049B5A1C0492109A134002339E
:1070E0009B003F4A1344191D169B0422179801F078
:1070F00011FD169B04331693159B01331593BDF8B0
:107100000430C3F38313DBB21A46159B9342E1D3D9
:10711000179B002B40D0324BD3F810341493304BD4
:10712000D3F81834002B1BD0179801F046FC4DE023
:1071300000238DF84F301498FFF7DAFA0346002B3E
:1071400002D001238DF84F309DF84F30002B03D033
:1071500017991498FFF788FA149BDB681B6814933F
:10716000149B002BE4D1179801F027FC00238DF825
:1071700003300DF10303184600F0F0FB184BD3F871
:107180001834002B02D1049B154A53609DF803303C
:10719000184600F0F9FB19E0114BD3F810341293A4
:1071A00006E01298FFF77AFA129BDB681B681293CD
:1071B000129B002BF5D10B4A0B4BD31ADB081B0497
:1071C00043F0020309491846FFF7CCFDFFF72EFEF6
:1071D000034683F00103DBB2184619B05DF804FBE7
:1071E000DC2D0020C0B2030088B2030060B40300AD
:1071F00000B585B00023039323E0164BD3F8103479
:10720000029301238DF807300FE00298FFF75FFA31
:1072100003461A46039B934203D100238DF807309F
:1072200006E0029BDB681B680293029B002BECD1FB
:107230009DF80730002B01D0039B07E0039B01332F
:107240000393039B092BD8DD4FF0FF33184605B09D
:107250005DF804FBDC2D002000B585B001900B46E5
:107260008DF80330FFF7C4FF0390039BB3F1FF3F9A
:1072700001D1039B22E0039BDBB219460198FFF783
:1072800019FA104BD3F81034002B08D10D4A019B8A
:10729000C2F81034019BDB6800221A600DE0094B34
:1072A000D3F81034DA68019BDB6812681A60054B6A
:1072B000D3F81034DB68019A1A60039B184605B0B6
:1072C0005DF804FBDC2D002000B583B00D4BD3F836
:1072D000103401930B4B012283F8202409E001981C
:1072E000FFF7FDF90198FFF7CDF9019BDB681B68FB
:1072F0000193019B002BF2D100BF00BF03B05DF8EA
:1073000004FB00BFDC2D002082B00190009100BF83
:1073100002B0704710B584B003900291039BDB88E4
:10732000002B0AD0039BDB881A461F4B00931346A1
:107330001E4A1F49029800F0E9FE039B1B7A052BA9
:107340002ED0039B5B7A002B12D0039B9B881A469E
:10735000039B1B7A19461046FFF768FA03461A4644
:10736000144B53F822301A461349029800F0CEFE0F
:10737000039B1B6819460298FFF7C6FF039B1B7A05
:107380001A460E4B53F82240039B9B880021184657
:10739000FFF72CFA034622460949029800F0B6FE90
:1073A00000BF04B010BD00BF94B40300A4B4030038
:1073B000DCB40300C82A0020F4B40300B42A00207F
:1073C000F8B4030000B585B00390029113468DF820
:1073D0000730039B1B7A052B0FD0039B5B7A002B96
:1073E00006D00D4B1B681A460C49029800F08EFE21
:1073F0000B49029800F08AFE07E09DF80730002B49
:1074000003D00749029800F081FE029800F05CFE6C
:1074100000BF05B05DF804FBC82A0020F4B40300E7
:1074200004B5030030B58BB0079006910592049324
:107430000E9B1B7B8DF827300E9B00221A730E9932
:107440000498FFF767FF059B062B7FD801A252F82F
:1074500023F000BF717402007B7402008B74020081
:107460009F740200BD740200E574020015750200ED
:1074700007990E9800F04AFE69E0069B1B681A46C1
:1074800007990E9800F042FE61E0069B1A68069B81
:1074900004331B6807990E9800F038FE57E0069BEE
:1074A0001A68069B04331968069B08331B6800930F
:1074B0000B4607990E9800F029FE48E0069B1968D4
:1074C000069B04331868069B08331B68069A0C3227
:1074D00012680192009303460A4607990E9800F03D
:1074E00015FE34E0069B1868069B04331C68069B57
:1074F00008331B68069A0C32126806991031096825
:107500000291019200932346024607990E9800F0DB
:10751000FDFD1CE0069B1C68069B04331D68069B52
:1075200008331B68069A0C321268069910310968F4
:1075300006981430006803900291019200932B4644
:10754000224607990E9800F0E1FD00E000BF0022FE
:107550000E990498FFF736FF0E9B9DF827201A73AB
:1075600000BF0BB030BD00BF00B587B003900291E3
:1075700001920093029B082B60D8009B1B7B8DF827
:107580001330009B00221A7300990198FFF7C2FE86
:107590000023059314E0059A029B9A4209D2039AAC
:1075A000059B13441B781A462649009800F0AEFD4F
:1075B00003E02549009800F0A9FD059B01330593E0
:1075C000059B072BE7D92149009800F09FFD002378
:1075D000059326E0059A029B9A421BD2039A059BCB
:1075E00013441B788DF812309DF812307E2B0AD888
:1075F0009DF81230184613F005FA0346002B02D00E
:107600009DF8123000E02E231A461149009800F030
:107610007DFD03E00F49009800F078FD059B0133E4
:107620000593059B072BD5D9012200990198FFF7F7
:10763000C9FE009B9DF813201A7300E000BF07B03D
:107640005DF804FB08B5030010B5030014B5030092
:1076500018B503001CB5030086B003900291019297
:1076600001238DF817309DF81730214A039B1360D2
:107670001F4A029B53601E4A019B9360039B44F286
:107680000102934213D0039B44F20202934221D1A0
:10769000019B174AD360164BDB681B881A46144BB4
:1076A0009A61134BDB685B68114AD36112E0019B5E
:1076B0000F4A13610E4B1B699B680D4A53610C4BBB
:1076C0001B691B680A4A9361094B1B695B68084A7E
:1076D000D36100BF72B600BF00BF9DF81730DBB2A8
:1076E000002BFAD162B600BF00BF06B0704700BFE2
:1076F0000032002000B583B002900091019244F264
:10770000010071466A4600F003F803B000BD00BFF7
:1077100030B58BB007900691059272B600BFFFF7A7
:10772000D3FD00BFFFF790FB0346002BFAD1079B68
:1077300044F2020293422FD0079B44F2020293428A
:1077400069D8079B44F20102934237D0079B44F269
:10775000010293425FD8079B012B05D0079B41F2A2
:10776000010293420CD056E0394A3A4BD31ADB0857
:107770001B0443F0010338491846FFF7F3FA57E0BA
:10778000334A344BD31ADB081B0443F0010333495B
:107790001846FFF7E7FA4BE0059B09932C4A2D4B5F
:1077A000D31ADB081B0443F00100099B5B681A46EF
:1077B000099B1B882A49FFF7F4FA39E0059B0893D7
:1077C000234A244BD31ADB081B0443F00104089B13
:1077D0009D68089B9B68184601F0D0FB034618463D
:1077E000089B5B681946089B1B68069A02920193E6
:1077F000009103462A461B492046FFF7FCFA144A2B
:10780000144BD31ADB081B0443F001031649184636
:10781000FFF7A8FA0CE00E4A0E4BD31ADB081B0444
:1078200043F00103069A11491846FFF7A9FA00BF71
:107830000F4B1B6803F00103002B00D000BE059A1C
:1078400006990798FFF708FF00BF0BB030BD00BFD7
:10785000C0B2030088B2030094B50300B4B50300BE
:10786000D8B50300F4B503001CB6030030B603001E
:10787000F0ED00E082B0EFF310830093009B0193E2
:1078800072B600BF019B184602B0704762B600BFD7
:1078900000BF704700B585B00190FFF7EBFF039084
:1078A000164B9B68002B1BD1144B01229A60144B82
:1078B000D3F88020134B1340104A1360104B114A29
:1078C000C3F880200E4BD3F884300C4A53600C4B25
:1078D0004FF0FF32C3F88420019B00221A7002E0AF
:1078E000019B01221A70039B002B01D1FFF7CEFFF1
:1078F0000023184605B05DF804FB00BF20320020CD
:1079000000E100E0FC06FFBD00B585B003468DF840
:107910000730104B9B68002B16D09DF80730002BCA
:1079200012D1FFF7A7FF03900B4A0A4B1B681360A5
:10793000094A084B5B685360064B00229A60039B20
:10794000002B01D1FFF7A2FF0023184605B05DF818
:1079500004FB00BF2032002000E100E000B583B04E
:10796000019000F02BF80346012B03D0054943207A
:1079700004F0B2FB0198FFF78DFF00BF03B05DF884
:1079800004FB00BF48B6030000B583B003468DF882
:10799000073000F013F80346012B03D006495120AD
:1079A00004F09AFB9DF807301846FFF7ADFF00BFC3
:1079B00003B05DF804FB00BF48B6030084B0EFF3EA
:1079C00005830193019BC3F308030393039B002BDF
:1079D0000DD1EFF314830093009B0293029B03F0FD
:1079E0000103002B0CBF01230023DBB200E00123C5
:1079F000184604B0704786B001900091019B53E88F
:107A0000011F8AB2D88902449889824228BF121A7B
:107A10001889824202BFBFF32F8F002307E0C2EA1A
:107A2000010243E801200028E9D14FF001038DF85D
:107A30000F30059002910492029A009B1A609DF803
:107A40000F30DBB2184606B0704784B00190019940
:107A500051E8013FC3EA034341E80132002AF7D16C
:107A60000392029300BF04B0704786B0019000916A
:107A7000019B53E8021F1FFAA1F2D888824202BF7D
:107A8000BFF32F8F00230DE0D889024498898242EA
:107A900028BF121AC1EA024243E802200028E8D1B6
:107AA0004FF001038DF80F30059002910492029A75
:107AB000009B1A609DF80F30DBB2184606B0704785
:107AC00084B00190019951E8023FC3EA234341E8A1
:107AD0000232002AF7D10392029300BF04B070472C
:107AE00086B00190019B53E8021FDA88B1EB314F59
:107AF0004FF0000017BF89B242EA024241EA024257
:107B000004E05968B1EB314F08BF012043E802217E
:107B10000029E8D18DF80F00059104929DF80F30EF
:107B2000DBB2184606B0704784B00390029111464C
:107B30001A460B46ADF806301346ADF80430029BEA
:107B4000002B01D10E231FE0BDF80630BDF8042044
:107B5000B3FBF2F102FB01F29B1A9BB2002B01D0A6
:107B6000092311E0039B029A1A60039B00225A60CA
:107B7000039B00229A60039BBDF806209A81039B19
:107B8000BDF80420DA810023184604B0704700B520
:107B900085B001900198FFF7A3FF03468DF80F30E1
:107BA0009DF80F30002B01D0002300E01123184670
:107BB00005B05DF804FB00B585B001900091009B15
:107BC00019460198FFF717FF0346002B07D0019BCA
:107BD0001B68009A128813440393039B00E0002360
:107BE000184605B05DF804FB00B583B00190009124
:107BF000009B1A88009B5B889A4204D10198FFF78A
:107C000024FF012300E00023184603B05DF804FBC5
:107C100000B585B001900091009B19460198FFF7CF
:107C200024FF0346002B07D0019B1B68009A528853
:107C300013440393039B00E00023184605B05DF84E
:107C400004FB00B583B001900091009B1A88009B53
:107C50005B889A4204D10198FFF732FF012300E0CC
:107C60000023184603B05DF804FB00B585B0019011
:107C70000091009B5B099B00019A1A44009B03F052
:107C80001F03012101FA03F31946104600F065F8BD
:107C9000039000BF05B05DF804FB00B585B001900E
:107CA0000091009B5B099B00019A1A44009B03F022
:107CB0001F03012101FA03F3DB431946104600F0CC
:107CC0007CF8039000BF05B05DF804FB82B0019022
:107CD0000091009B5B099B00019A13441A68009B6A
:107CE00003F01F0322FA03F303F00103002B14BF78
:107CF00001230023DBB2184602B0704710B487B0EE
:107D000001900091019B009A53E8004F104643E810
:107D1000000191F0000FF7D1059404900391059BA9
:107D2000184607B05DF8044B704710B487B0019057
:107D30000091019B009A53E8004F44EA020043E897
:107D4000000191F0000FF6D1059404900391059B7A
:107D5000184607B05DF8044B704710B487B0019027
:107D60000091019B009A53E8004F44EA020043E867
:107D7000000191F0000FF6D1059404900391049B4B
:107D8000184607B05DF8044B704710B487B00190F7
:107D90000091019B009A53E8004F04EA020043E877
:107DA000000191F0000FF6D1059404900391059B1A
:107DB000184607B05DF8044B704710B487B00190C7
:107DC0000091019B009A53E8004F04EA020043E847
:107DD000000191F0000FF6D1059404900391049BEB
:107DE000184607B05DF8044B704710B487B0019097
:107DF0000091019B009A53E8004F04EB020043E816
:107E0000000191F0000FF6D1059404900391049BBA
:107E1000184607B05DF8044B704710B487B0019066
:107E20000091019B009A53E8004FA4EB020043E845
:107E3000000191F0000FF6D1059404900391049B8A
:107E4000184607B05DF8044B704700B583B0019049
:107E500001210198FFF769FF0346184603B05DF85A
:107E600004FB00B583B0019001210198FFF775FF75
:107E70000346184603B05DF804FB00B583B00190DB
:107E800000210198FFF781FF0346184603B05DF813
:107E900004FB00B583B0019000210198FFF78DFF2E
:107EA0000346184603B05DF804FB000000B583B03C
:107EB00001900B468DF80330019B002B03D108493C
:107EC000E82004F009F9019BDA689DF80330019974
:107ED000098A01FB03F31344184603B05DF804FB61
:107EE000B4B6030000B583B001900091019B002B54
:107EF00003D10849F52004F0EFF8009B019AD268FD
:107F00009B1A019A128AB3FBF2F3DBB2184603B054
:107F10005DF804FBB4B6030000B585B00190019B89
:107F2000002B01D10E234CE0019B1B68002B03D1D9
:107F30002649FF2004F0D0F8019B5B68002B04D198
:107F400022494FF4807004F0C7F8019B9B68002B16
:107F500004D11E4940F2011004F0BEF8019BDB6819
:107F6000002B04D119494FF4817004F0B5F8019B3E
:107F70001B8A002B04D1154940F2031004F0ACF821
:107F8000019B9A68019B5B68D31A8DF80F30019BA7
:107F90001B68019A52681A6007E0019B1A6813680F
:107FA000591C11609DF80F201A709DF80F305A1E51
:107FB0008DF80F20002BF0D1019B1B6800221A7155
:107FC0000023184605B05DF804FB00BFB4B60300FB
:107FD00000B585B00190019B002B04D11F494FF4DF
:107FE000927004F079F80023039300238DF80A308F
:107FF0000DF10A031846FFF7B1FC019B1B681A68D4
:10800000019B5B689A421FD9019B1B681A68013A61
:108010001A601B681B7819460198FFF747FF039009
:10802000019B9A68019B1B681B68D31A8DF80B3063
:10803000019B1B681B799DF80B209A4204D9019B78
:108040001B689DF80B201A719DF80A301846FFF73F
:108050009BFC039B184605B05DF804FBB4B6030017
:1080600010B584B001900091019B002B04D11549FB
:1080700040F2471004F030F8009B002B04D1114966
:108080004FF4A47004F028F8009B039300238DF8AC
:108090000B300DF10B031846FFF760FC019B1B68CA
:1080A0001C68621C1A6003990198FFF71BFF0346C6
:1080B00023709DF80B301846FFF766FC00BF04B034
:1080C00010BD00BFB4B6030000B583B00190019BA2
:1080D000002B03D10C49312003F0FEFF019B9B686C
:1080E000002B0CD0019B5B69019A1069019A116801
:1080F000019A92689847019B00229A6000E000BFB5
:1081000003B05DF804FB00BF1CB703000EB400B55C
:1081100084B00190019B002B03D11849422003F049
:10812000DBFF019B5B69002B03D11449432003F063
:10813000D3FF019B1B68002B03D11049442003F09F
:10814000CBFF019B5B68002B03D10C49452003F05A
:10815000C3FF059B002B0AD00023039306AB0393B8
:1081600003AB1A460599019800F0B8F900E000BF8A
:1081700004B05DF804EB03B0704700BF1CB7030008
:1081800000B583B001900B468DF803309DF80330A5
:108190000A2B03D10D210198FFF7F2FF019B1A680A
:1081A000019B9B68581C0199886013449DF803202B
:1081B0001A70019B9A68019B5B689A4202D30198EE
:1081C000FFF782FF00BF03B05DF804FB00B587B086
:1081D000039002910192009300230593009B03F00A
:1081E0000103002B24D00BE0029B01330293059B7B
:1081F000013305939DF8133019460398FFF7C0FF2C
:10820000029B1B788DF813309DF81330002BEBD1B7
:1082100006E0019B013B019320210398FFF7B0FF8B
:10822000019A059B9A422ED9019B002BF1D12AE09D
:10823000029B002B0BD0029812F08DFC059006E0FB
:10824000019B013B019320210398FFF799FF019ABD
:10825000059B9A420FD9019B002BF1D10BE0029BA9
:1082600001330293059B013305939DF813301946A2
:108270000398FFF785FF029B1B788DF813309DF85C
:108280001330002BEBD100BF07B05DF804FB0000FA
:1082900000B589B00390029101920093029B07936D
:1082A0000123069307E0079A019BB2FBF3F30793C0
:1082B000069B01330693079A019B9A42F3D2009AD8
:1082C000069B9A4201D9009B06930B9B03F0010386
:1082D000002B22D10A9B002B1FD00B9B03F0020323
:1082E000002B06D0009B002B03D130238DF81730D4
:1082F00002E020238DF8173008E00A9B013B0A9327
:108300009DF8173019460398FFF73AFF0A9B002B98
:1083100003D0069A0A9B9A42EFD301230793009B4E
:10832000012B03D9009B013B009309E0029A079BB4
:10833000B2FBF3F30493049A019B9A4200D205E046
:10834000079B019A02FB03F30793E8E7029A079B56
:10835000B2FBF3F30493049B079A02FB03F3029A24
:10836000D31A0293154A049B13441B7819460398A9
:10837000FFF706FF079A019BB2FBF3F30793079BF6
:10838000002BE3D10B9B03F00103002B11D00A9BC0
:10839000002B0ED006E00A9B013B0A932021039894
:1083A000FFF7EEFE0A9B002B03D0069A0A9B9A4227
:1083B000F1D300BF09B05DF804FB00BFDCB70300D8
:1083C00000B589B00590049103920293049B002BA1
:1083D000B8BF5B4206930123079307E0039B069A0D
:1083E00092FBF3F30693079B01330793039B069AD3
:1083F0009A42F3DA029A079B9A4201D9029B0793A9
:108400000A9B002B0AD0049B002B04DB0B9B03F080
:108410000403002B02D00A9B013B0A930B9B03F041
:108420000203002B02D0029B002B16D00B9B03F003
:108430000103002B11D10A9B002B0ED006E00A9BF2
:10844000013B0A9320210598FFF79AFE0A9B002B17
:1084500003D0079A0A9B9A42F1D3049B002B07DAB8
:10846000049B5B4204932D210598FFF789FE08E0E9
:108470000B9B03F00403002B03D02B210598FFF77F
:108480007FFE0B9B03F00203002B19D00B9B03F024
:108490000103002B14D1029B002B11D10A9B002B4E
:1084A0000ED006E00A9B013B0A9330210598FFF7A6
:1084B00067FE0A9B002B03D0079A0A9B9A42F1D3CE
:1084C00004990B9B01930A9B0093029B039A0598C6
:1084D000FFF7DEFE00BF09B05DF804FB00B58FB00A
:1084E000059004910392059B002B04D1B64940F2FC
:1084F000522003F0F1FD059B5B69002B04D1B249CA
:108500004FF4157003F0E8FD059B1B68002B04D1A8
:10851000AD4940F2552003F0DFFD059B5B68002B61
:1085200004D1A94940F2562003F0D6FD049B002B4C
:1085300000F09381049B1B788DF83730049B013346
:1085400004939DF83730002B00F07E819DF8373082
:10855000252B40F06D8100230A9301230C93049B8B
:108560001B788DF837309DF83730302B0DD0302BFD
:108570001BDC2B2B11D02D2B17D10A9B43F00103B1
:108580000A93049B0133049312E00A9B43F0020315
:108590000A93049B013304930AE00A9B43F004030B
:1085A0000A93049B0133049302E000230C9300BF61
:1085B0000C9B002BD3D1002309939DF837302A2B35
:1085C0000CD1039B1B68191D039A11601B68099A43
:1085D00013440993049B013304931AE0049B1B7812
:1085E0008DF837309DF837302F2B12D99DF8373062
:1085F000392B0ED8049B01330493099A13469B0030
:1086000013445B001A469DF837301344303B0993FE
:10861000D3E700230B93049B1B788DF837309DF82C
:1086200037302E2B1DD1049B01330493049B1B7800
:108630008DF837309DF837302F2B12D99DF8373011
:10864000392B0ED8049B013304930B9A13469B00DD
:1086500013445B001A469DF837301344303B0B93AC
:10866000E4E7049B1B788DF837309DF837306C2B8E
:1086700003D09DF83730682B07D1049B0133049356
:10868000049B1B788DF83730EFE79DF83730252BAA
:1086900000F0C480252BC0F2C680782B00F3C38085
:1086A000582BC0F2C080583B202B00F2BC8001A2A6
:1086B00052F823F0A38702002788020027880200CF
:1086C00027880200278802002788020027880200E6
:1086D00027880200278802002788020027880200D6
:1086E000398702005B870200278802002788020082
:1086F00027880200278802005B8702002788020083
:1087000027880200278802002788020027880200A5
:1087100027880200E98702002788020027880200D4
:10872000CD870200278802007F8702002788020089
:1087300027880200A3870200039B1B68191D039A68
:1087400011601B680C930C9B8DF81F309DF81F3037
:1087500019460598FFF714FD66E0039B1B68191D79
:10876000039A11601B680C930A9B0193099B009369
:108770000B9B0A220C990598FFF722FE54E0039BFD
:108780001B68191D039A11601B680C930C990A9BB6
:108790000193099B00930B9B0A220598FFF778FD34
:1087A00042E0039B1B68191D039A11601B680C9320
:1087B0000C990A9B0193099B00930B9B102205982F
:1087C000FFF766FD30E000BF78B70300039B1B682E
:1087D000191D039A11601B6808930A9B099A08994E
:1087E0000598FFF7F3FC1FE0039B1B68191D039A14
:1087F00011601B680C9330210598FFF7C1FC7821AC
:108800000598FFF7BDFC0C99002301930823009302
:10881000082310220598FFF73BFD05E02521059868
:10882000FFF7AEFC00E000BF049B0133049305E0BA
:108830009DF8373019460598FFF7A2FC049B1B787A
:10884000002B7FF477AE00E000BF059B1B7B002B65
:1088500004D00598FFF738FC00E000BF0FB05DF8CA
:1088600004FB00BF00B583B001900198FFF754FBF3
:108870000346184603B05DF804FB00B58BB00190C9
:108880000091019B1B8A043B0793009A079B1344AA
:10889000DA1C079BB2FBF3F38DF81B300198FFF74E
:1088A00097FB0590059B002B01D1002338E0059B29
:1088B00000221A71059B01225A71079B9AB2059BEF
:1088C000DA80059B09939DF81B30013B0493099BBB
:1088D000019A1A60002308931DE00198FFF778FBC6
:1088E0000390039B002B0ED0059B5B790133DAB21A
:1088F000059B5A71099B039A1A60039B019A1A609F
:10890000039B099304E0059800F00EF8002307E0AC
:10891000089B01330893089A049B9A42DDD3059B78
:1089200018460BB05DF804FB00B58BB00190019BBD
:108930000793079B5B798DF81B30019B08939DF88B
:108940001B30013B05930023099305E0089B1B683E
:108950000893099B01330993099A059B9A42F5D321
:10896000089B1B680493019B0893002309930BE069
:10897000089B1B68039308990498FFF771FB039BFE
:108980000893099B013309939DF81B30099A9A4279
:10899000EED300BF00BF0BB05DF804FB00B585B09F
:1089A0000190019B0393039B043301211846FFF7B9
:1089B0001CFA00BF05B05DF804FB00B587B001905C
:1089C000019B0593059B043301211846FFF725FA07
:1089D0000346039303AB0493049B1B78002B02D143
:1089E0000198FFF7A1FF00BF07B05DF804FB00008E
:1089F00000B591B00390029101920093039B002B6C
:108A000003D14349B62003F067FB039B0993039B03
:108A10000F93099BDB881A46099B5B7903FB02F3E2
:108A2000043B0893009A089B9A4203D33849C42018
:108A300003F052FB099BDB880793009B1A1D079BE1
:108A4000B2FBF3F30E93009B0433079AB3FBF2F2ED
:108A5000079901FB02F29B1A0D93019B1A68009B78
:108A60001344089A9A4203D2089A009BD31A01E051
:108A7000019B1B680C93019B0C9A1A6005E00F9BED
:108A80001B680F930E9B013B0E930E9B002BF6D1A0
:108A900000230B93079A0D9BD31A0A930A9A0C9BF7
:108AA000934228BF13460A932AE0029A0B9B134471
:108AB00006930F9A0D9B1344043305939DF8483099
:108AC000002B05D00A9A0599069811F0C6FF04E01C
:108AD0000A9A0699059811F0C0FF00230D930F9B89
:108AE0001B680F930C9A0A9BD31A0C930B9A0A9B40
:108AF00013440B93079A0C9B934228BF13460A9387
:108B00000C9B002BD1D100BF00BF11B05DF804FB5E
:108B1000ECB7030000B589B005900491039202936D
:108B2000039B079307AA00230093029B04990598CF
:108B3000FFF75EFF079B039A9A4203D00349F62092
:108B400003F0CAFA00BF09B05DF804FBECB70300FC
:108B500000B589B00590049103920293039B07939B
:108B600007AA01230093029B04990598FFF740FF91
:108B7000079B039A9A4204D004494FF4807003F093
:108B8000ABFA00BF09B05DF804FB00BFECB703000F
:108B900082B003468DF807309DF8073003F01F02BE
:108BA00006499DF907305B09012000FA02F26033A3
:108BB00041F8232000BF02B0704700BF00E100E091
:108BC00000B583B00190019B002B03D106497220B0
:108BD00003F082FA019B00221A60BFF35F8F00BF8F
:108BE00000BF03B05DF804FBA8B8030041DF704785
:108BF00000BF184600B585B000238DF803300DF195
:108C000003031846FEF7AAFEF1EE103A0193019B0A
:108C10000393039B23F09F030293029BE1EE103A20
:108C200000BFBFF35F8F00BF2620FFF7B1FF9DF8A5
:108C300003301846FEF7A8FE039B03F00703002B42
:108C400003D004497D2003F047FA00BF05B05DF86A
:108C500004FB00BFECB8030008B5064B00221A70F5
:108C60000548FFF7ADFF0549054800F02BF9002343
:108C7000184608BD303200202C32002058B90300BD
:108C80003432002000B583B0FFF7B4FF0CF070F869
:108C90000346002B0ED0FFF7A9FF0190019B002B8C
:108CA0000ED0019B022B0BD007494FF4B07003F09C
:108CB00013FA05E020BF00BF40BF00BF20BF00BFC8
:108CC00000BF03B05DF804FBECB8030082B0019074
:108CD000019B9B6800229A60019B9B6800221A619D
:108CE000019B9B6800225A61019B9B680022DA600D
:108CF000019B9B6800225A60019B9B6800221A60BE
:108D000000BF02B07047000000B589B00390029127
:108D100001928DF80330029B002B03D139493B208F
:108D200003F0DAF9019B002B03D136493C2003F014
:108D3000D3F99DF80330002B09D0039B9B6818469C
:108D4000FFF783F80346002B01D0112355E0039B66
:108D50009B68DA68039B9B681B69D21A039B5B685C
:108D600001339A420DD1019B00221A609DF8033015
:108D7000002B04D0039B9B681846FFF78AF800235A
:108D80003BE0039B9B68DA68039B5B681340079397
:108D9000039B9B681A69039B5B6813400693079AC1
:108DA000069B9A4205D3039B5A68079BD31A01334B
:108DB0000AE0039B9B681A69039B5968039B9B68A5
:108DC000DB68CB1A134401330593019B1A68059B9A
:108DD0009A4228BF1A46019B1A60039B1A68079B98
:108DE0001A44029B1A60039B9B68D968019B1A680E
:108DF000039B9B680A44DA600023184609B05DF8BB
:108E000004FB00BF64B9030000B585B00190009178
:108E1000019B5A68019B9B681969019B9B689B6831
:108E2000CB1A134401330393009A039B9A4201D94E
:108E3000042318E0019B9B689968019B9B68009A3A
:108E40000A449A60019B9A68019B9B689268DA6069
:108E5000019B9B681846FFF710F80346002B01D1D1
:108E6000082300E00023184605B05DF804FB00B5B8
:108E700085B001900091019B9B689A68019B9B685B
:108E80001B69D31A0393009A039B9A4201D90423C6
:108E900014E0019B9B681969019B9B68009A0A4436
:108EA0001A61019B9A68019B9B6812695A61019B38
:108EB0009B6804331846FEF7ECFF0023184605B004
:108EC0005DF804FB00B583B001900091019B002B7D
:108ED00003D11049502003F0FFF8009B002B03D171
:108EE0000C49512003F0F8F8019B009A1A60019B8D
:108EF0001B681A68019B5A60019B5A68019B1B689A
:108F00005B689A4202D1019B00225A6000BF03B005
:108F10005DF804FBCCB9030000B583B00190019B60
:108F2000002B03D11449632003F0D6F8019B1B6882
:108F3000002B03D11049642003F0CEF8019B5B683D
:108F4000002B14D0019B5B681A46019B1B689B6831
:108F500013441A46019B5A60019B5A68019B1B6887
:108F60005B689A4204D1019B00225A6000E000BF76
:108F700003B05DF804FB00BFCCB9030000B585B0B9
:108F80000190019800F00EF80390039B002B01D094
:108F9000039B00E0024B184605B05DF804FB00BFE0
:108FA000C4BA030086B00190164B0593164B049388
:108FB0001FE0049A059BD31ADB10DA0F13445B10F1
:108FC000DB00059A13440393039B1B680293029AE8
:108FD000019B9A4202D9039B04930AE0029A019BE7
:108FE0009A4203D2039B0833059302E0039B5B681C
:108FF00004E0059A049B9A42DBD30023184606B08E
:10900000704700BFC4BE0300ECBF030000B587B0CB
:10901000059004910392059B002B10D1194A1A4B1D
:10902000D31ADB081B0443F00100184A18490E2329
:1090300000930B461749FDF7C8FE0E231DE0049B65
:10904000002B10D10F4A104BD31ADB081B0443F03E
:109050000100114A0E490E2300930B460D49FDF7FE
:10906000B4FE0E2309E0059B049A1A60059B1B6859
:109070001B680399059898470346184607B05DF8A2
:1090800004FB00BFE8B2030088B20300FCBF03008A
:10909000A0C1030004C0030030C0030010B586B0B7
:1090A0000590049103920293059B002B10D1454A31
:1090B000454BD31ADB081B0443F00100434A4449E3
:1090C0000E2300930B464349FDF77FFE0E2375E008
:1090D000039B002B10D13B4A3B4BD31ADB081B04EC
:1090E00043F001003C4A3A490E2300930B463949AC
:1090F000FDF76BFE0E2361E0059B1B68002B10D172
:10910000304A314BD31ADB081B0443F00100334AC9
:109110002F49082300930B462E49FDF756FE0823DE
:109120004CE0029B002B10D1264A274BD31ADB08B8
:109130001B0443F001002A4A2549092300930B46EA
:109140002449FDF742FE092338E0049800F026FA8E
:109150000346002B10D11B4A1B4BD31ADB081B0400
:1091600043F001001F4A1A49102300930B46194986
:10917000FDF72BFE102321E0029A0499059800F0D8
:10918000F3F90346002B10D10E4A0F4BD31ADB081C
:109190001B0443F00100144A0D49102300930B46B1
:1091A0000C49FDF712FE102308E0059B1B689C6824
:1091B000029B039A04990598A0470346184606B0F7
:1091C00010BD00BFE8B2030088B20300FCBF03007B
:1091D000B4C1030004C0030044C0030038C003004E
:1091E0004CC0030050C0030068C0030010B586B037
:1091F0000590049103920293059B002B10D1604AC5
:10920000604BD31ADB081B0443F001005E4A5F4940
:109210000E2300930B465E49FDF7D7FD0E23ABE00E
:10922000039B002B10D1564A564BD31ADB081B0464
:1092300043F00100574A55490E2300930B46544909
:10924000FDF7C3FD0E2397E0059B1B68002B10D193
:109250004B4A4C4BD31ADB081B0443F001004E4A27
:109260004A49082300930B464949FDF7AEFD082300
:1092700082E0029B002B10D1414A424BD31ADB08FB
:109280001B0443F00100454A4049092300930B4663
:109290003F49FDF79AFD09236EE0059B5B685A681C
:1092A000029BB3FBF2F102FB01F29B1A002B10D0E0
:1092B000334A344BD31ADB081B0443F00100384A0D
:1092C0003249092300930B463149FDF77EFD0923FE
:1092D00052E0049800F062F90346002B10D1284AAE
:1092E000284BD31ADB081B0443F001002D4A274901
:1092F000102300930B462649FDF767FD10233BE042
:10930000039B184600F04AF90346002B10D11C4A73
:109310001C4BD31ADB081B0443F00100224A1B49F3
:10932000102300930B461A49FDF74FFD102323E04D
:10933000029A0499059800F017F90346002B10D102
:109340000F4A104BD31ADB081B0443F00100174AE5
:109350000E49102300930B460D49FDF736FD1023EF
:109360000AE0059B1B68DC68089B0093029B039A3C
:1093700004990598A0470346184606B010BD00BFE3
:10938000E8B2030088B20300FCBF0300C8C10300B9
:1093900004C0030090C0030038C003004CC00300A9
:1093A00098C00300C4C00300DCC0030000C1030078
:1093B00010B586B00590049103920293059B002B93
:1093C00010D13E4A3E4BD31ADB081B0443F0010088
:1093D0003C4A3D490E2300930B463C49FDF7F5FC02
:1093E0000E2368E0059B1B68002B10D1334A344BD9
:1093F000D31ADB081B0443F00100354A3249082325
:1094000000930B463149FDF7E0FC082353E0039B32
:10941000002B10D1294A2A4BD31ADB081B0443F036
:1094200001002C4A2849092300930B462749FDF7E0
:10943000CCFC09233FE00499059800F0BCF80346F2
:10944000002B10D11D4A1E4BD31ADB081B0443F01E
:109450000100214A1C49102300930B461B49FDF7CC
:10946000B4FC102327E0059B5B681B68039A02FB92
:1094700003F31A460499059800F076F80346002B8A
:1094800010D10E4A0E4BD31ADB081B0443F0010027
:10949000124A0D49102300930B460C49FDF795FC29
:1094A000102308E0059B1B681C69029B039A049922
:1094B0000598A0470346184606B010BDE8B2030061
:1094C00088B20300FCBF0300DCC1030004C003003A
:1094D00038C003004CC0030028C1030050C1030082
:1094E00000B585B00190019B002B03D0019B1B6848
:1094F000002B28D10023039319E0039A13469B0005
:1095000013449B001A46154B13440193019B1B689F
:10951000002B09D0019B1B68DB6901989847034623
:10952000002B01D0012314E0039B013303930C4A69
:109530000A4BD31A0B4AA2FB03231B09039A9A4234
:10954000DBD3002305E0019B1B68DB69019898478A
:109550000346184605B05DF804FB00BF982A0020BA
:10956000AC2A0020CDCCCCCC84B0039002910192E7
:10957000039BDB68029A9A4209D3029A019B134427
:109580005A1E039B1B699A4201D8012300E0002365
:1095900003F00103DBB2184604B0704782B00190BB
:1095A000019B03F00303002B0CBF01230023DBB25C
:1095B000184602B0704782B001900091019B5B6831
:1095C0001B685A1E009B1340002B0CBF0123002375
:1095D000DBB2184602B0704729DF704700BF18465B
:1095E00028DF704700BF184600B589B00190009190
:1095F000019B1B689B68002B35D002AB00221A60D0
:109600005A609A60DA601A615A61009B0393019B69
:109610009B680793019B1B79002B02D0012B0DD077
:109620001AE001238DF80830019B1B690493019B0C
:10963000DB680593019B5B6906930DE002238DF8BF
:109640000830019BDB684FF4805202FB03F3049364
:10965000019B5B69069300BF019B1B689B6802AA84
:109660001046984700E000BF09B05DF804FB00B564
:1096700087B00190019B5A69019B9B69D31AB3F58E
:10968000805F28BF4FF4805305930422059BB3FBF2
:10969000F2F3012B38BF01230593019B1A69019B4B
:1096A0009B6913440493019BDB681A46019B9B69E9
:1096B00013440393059A03990498FFF78DFF03461B
:1096C000184607B05DF804FB00B583B00190019B1C
:1096D000DA68019B1B6913441846FFF781FF0346B4
:1096E000184603B05DF804FB08B5034B0349184660
:1096F000FEF7A7FA00BF08BDC8320020F0320020F4
:1097000008B5084B08491846FEF782FA0346074A8F
:109710001360064B1B68002B14BF01230023DBB230
:10972000184608BDC8320020F0320020EC3200207C
:1097300000B583B02A4B1B7A002B0BD1FFF7E0FF5B
:10974000034683F00103DBB2002B03D0244B00223D
:109750005A6042E0224B02221A72224B1B681B798C
:10976000002B02D0012B07D00DE01E4B1B681846C2
:10977000FFF77DFF019009E01A4B1B681846FFF7C1
:10978000A3FF019002E00323019300BF019B002B84
:1097900003D0019B112B0CD00FE0114B1B7C83F0ED
:1097A0000103DBB2002B17D00021022000F060F98A
:1097B00012E00B4B01221A720FE00A4B1B680321C7
:1097C0001846FFF711FF064B00221A72044B0022C5
:1097D0005A60FFF789FF00E000BF03B05DF804FBAB
:1097E000D8320020EC32002008B50848FEF72DFBE7
:1097F0000346002B08D1064B5B7C83F00103DBB2F0
:10980000002B01D0FFF794FF00BF08BDDC32002021
:10981000D832002084B001901B4B0022DA60019BFB
:109820001B79002B02D0012B19D028E0019B5A692B
:10983000019B9B69D31AB3F5805F28BF4FF4805317
:109840000393019B9A69039B1A44019B9A61019BB4
:109850009A69019B5B699A420ED1012310E0019B3A
:109860001B695A1C019B1A61019B1A69019B5B6968
:109870009A4203D1012303E000BF00E000BF0023B0
:10988000184604B0704700BFD832002082B0019063
:10989000084BDB680133074AD360064BDB68082BB3
:1098A00004D9044B0022DA60012300E000231846AB
:1098B00002B07047D832002000B583B0019000910B
:1098C000019B0C4A5A600C48FEF7BFFA0346002B76
:1098D0000BD10BF04DFA03461A46074B1A74074892
:1098E0001C238C220649FEF71FF90023184603B0FB
:1098F0005DF804FBF0C10300D8320020C83200201C
:109900003C32002000B583B0019000911422002168
:10991000054811F0CBF8054B1846FEF738F900233F
:10992000184603B05DF804FBD8320020C83200208E
:1099300000B587B00390029101920093174A04ABDF
:1099400019461046FEF737F90590059B002B01D10B
:1099500004231FE01C220021059811F0A7F8059BA5
:1099600000221A71059B039A1A60059B089A9A6057
:10997000059B029A1A61059B019ADA60059B009A81
:109980005A61064A04AB19461046FEF72DF9FFF757
:109990002BFF0023184607B05DF804FBC8320020F7
:1099A00000B585B00390029101920093029B009A4A
:1099B0001946019811F051F80023184605B05DF8DA
:1099C00004FB000000B587B0039002910192009360
:1099D000184A04AB19461046FEF7EDF80590059BB2
:1099E000002B01D1042320E01C220021059811F056
:1099F0005DF8059B01221A71059B039A1A60059B6D
:109A0000009A9A604FF48052029BB3FBF2F2059BDE
:109A1000DA60059B019A5A61064A04AB1946104662
:109A2000FEF7E2F8FFF7E0FE0023184607B05DF806
:109A300004FB00BFC832002082B001900091009B5F
:109A4000184602B0704782B001900091002318467A
:109A500002B0704782B00190044B1B7A002B14BFF8
:109A600001230023DBB2184602B07047D832002031
:109A700000B585B001900091019B022B02D0019BA3
:109A8000032B48D1274B1B7A022B05D0022B35DC48
:109A9000002B42D0012B31E000238DF80F30019BC9
:109AA000022B03D0019B032B09D011E01E4B1B6836
:109AB0001846FFF7AFFE03468DF80F3008E01A4B4B
:109AC0001B681846FFF7E2FE03468DF80F3000BF13
:109AD0009DF80F30002B10D0124B00221A72124B3F
:109AE0001A68019B022B01D1002300E00D231946C7
:109AF0001046FFF779FDFFF7F7FD00BF094B5B7CD0
:109B000083F00103DBB2002B02D0FFF711FE05E06A
:109B10000BF012F902E000BF00E000BF05B05DF8F5
:109B200004FB00BFD8320020EC32002082B0034694
:109B300000918DF80730064B01225A74044B1B7AB2
:109B4000002B0CBF01230023DBB2184602B0704784
:109B5000D832002000B583B0034600918DF807305D
:109B60009DF80730012B03D09DF80730032B0DD152
:109B7000084B00225A749DF80730012B0CBF0123BB
:109B80000023DAB2034B1A74FFF7D2FD00BF03B013
:109B90005DF804FBD8320020BFF34F8F00BF074BA6
:109BA000DB6803F4E0620549054B1343CB60BFF368
:109BB0004F8F00BF00BF00BFFCE700BF00ED00E01B
:109BC0000400FA05024B034A1A6000BF704700BF49
:109BD000EC2A00200090D00308B500F069F9034694
:109BE000002B06D0A04B1B681B0AA04A03F01F03E2
:109BF000136000F089F90346002B02D09C4B9D4A6C
:109C00001A6000F09DF90346002B06D09A4B1B68A2
:109C10005B0B9A4A03F00703136000F0BDF903469B
:109C2000002B05D0964BDB68954A23F08073D360F8
:109C300000F0CEF90346002B0ED04FF080430022F7
:109C4000C3F80C214FF080430022C3F810214FF0DD
:109C500080430022C3F8382500F0E6F90346002BC4
:109C600002D0884B03221A6000F0FAF90346002B59
:109C70000BD0854B05221A60844B01221A60844B5D
:109C800000221A60834B3F221A6000F005FA034657
:109C9000002B76D04FF080537F4AD3F80434C2F8BB
:109CA00020354FF080537C4AD3F80834C2F824356D
:109CB0004FF08053784AD3F80C34C2F828354FF06F
:109CC0008053754AD3F81034C2F82C354FF08053C6
:109CD000714AD3F81434C2F830354FF080536E4ACD
:109CE000D3F81834C2F834354FF080536A4AD3F8A9
:109CF0001C34C2F840354FF08053674AD3F8203403
:109D0000C2F844354FF08053634AD3F82434C2F884
:109D100048354FF08053604AD3F82834C2F84C35A8
:109D20004FF080535C4AD3F82C34C2F850354FF0D2
:109D30008053594AD3F83034C2F854354FF0805329
:109D4000554AD3F83434C2F860354FF08053524A44
:109D5000D3F83834C2F864354FF080534E4AD3F804
:109D60003C34C2F868354FF080534B4AD3F8403446
:109D7000C2F86C354FF08053474AD3F84434C2F8E8
:109D8000703500F0A5F90346002B05D0434B1B6846
:109D9000434A03F04F03136000F0C6F90346002B5B
:109DA0000DD04FF08043D3F8003403F00103002BB3
:109DB00005D04FF080436FF00102C3F8002400F09B
:109DC000DFF90346002B05D0364B1B68354A43F4B8
:109DD00080631360344BD3F88830334A43F4700304
:109DE000C2F88830BFF34F8F00BFBFF36F8F00BF43
:109DF0004FF01023D3F80032002B05DB4FF0102377
:109E0000D3F80432002B2BDA284B0122C3F80425A7
:109E100000BF264BD3F80034002BFAD04FF01023AC
:109E20001522C3F8002200BF204BD3F80034002BCA
:109E3000FAD04FF010231522C3F8042200BF1B4BA9
:109E4000D3F80034002BFAD0184B0022C3F80425B5
:109E500000BF164BD3F80034002BFAD0FFF79CFE5E
:109E6000FFF7B0FE00BF08BD2403001040350140DD
:109E700074C007400DF0ADBA440200103C0500402C
:109E8000F0ED00E0A005004010560040885600406C
:109E9000185600401456004000C000405802001000
:109EA000E40E00403C17004000ED00E000E00140FF
:109EB000124B1B68DBB2062B1DD1114B1B6803F044
:109EC0000F03002B17D10F4B1B6803F0F003302B4F
:109ED00001D1012310E00B4B1B6803F0F003402B72
:109EE00001D1012308E0074B1B6803F0F003502B5E
:109EF00001D1012300E0002318467047E00F00F075
:109F0000E40F00F0E80F00F00A4B1B68DBB2062BF1
:109F10000DD1094B1B6803F00F03002B07D1074B32
:109F20001B6803F0F003302B01D1012300E0002374
:109F300018467047E00F00F0E40F00F0E80F00F063
:109F4000124B1B68DBB2062B1DD1114B1B6803F0B3
:109F50000F03002B17D10F4B1B6803F0F003302BBE
:109F600001D1012310E00B4B1B6803F0F003402BE1
:109F700001D1012308E0074B1B6803F0F003502BCD
:109F800001D1012300E0002318467047E00F00F0E4
:109F9000E40F00F0E80F00F00A4B1B68DBB2062B61
:109FA0000DD1094B1B6803F00F03002B07D1074BA2
:109FB0001B6803F0F003302B01D1012300E00023E4
:109FC00018467047E00F00F0E40F00F0E80F00F0D3
:109FD000124B1B68DBB2062B1DD1114B1B6803F023
:109FE0000F03002B17D10F4B1B6803F0F003302B2E
:109FF00001D1012310E00B4B1B6803F0F003402B51
:10A0000001D1012308E0074B1B6803F0F003502B3C
:10A0100001D1012300E0002318467047E00F00F053
:10A02000E40F00F0E80F00F00A4B1B68DBB2062BD0
:10A030000DD1094B1B6803F00F03002B07D1074B11
:10A040001B6803F0F003302B01D1012300E0002353
:10A0500018467047E00F00F0E40F00F0E80F00F042
:10A060000A4B1B68DBB2062B0DD1094B1B6803F0B2
:10A070000F03002B07D1074B1B6803F0F003302BB5
:10A0800001D1012300E0002318467047E00F00F0E3
:10A09000E40F00F0E80F00F00A4B1B68DBB2062B60
:10A0A0000DD1094B1B6803F00F03002B07D1074BA1
:10A0B0001B6803F0F003502B01D1012300E00023C3
:10A0C00018467047E00F00F0E40F00F0E80F00F0D2
:10A0D000124B1B68DBB2062B1DD1114B1B6803F022
:10A0E0000F03002B17D10F4B1B6803F0F003302B2D
:10A0F00001D1012310E00B4B1B6803F0F003402B50
:10A1000001D1012308E0074B1B6803F0F003502B3B
:10A1100001D1012300E0002318467047E00F00F052
:10A12000E40F00F0E80F00F0124B1B68DBB2062BC7
:10A130001DD1114B1B6803F00F03002B17D10F4BE0
:10A140001B6803F0F003302B01D1012310E00B4B0F
:10A150001B6803F0F003402B01D1012308E0074BFB
:10A160001B6803F0F003502B01D1012300E0002312
:10A1700018467047E00F00F0E40F00F0E80F00F021
:10A18000064B1B68062B05D1054B1B68062B01D11E
:10A19000012300E000231846704700BF3001001083
:10A1A0003401001000B583B00190019B1B681F2B88
:10A1B00004D9054940F2CD1001F08EFF4FF0A043C5
:10A1C000184603B05DF804FB1CC2030000B585B05F
:10A1D000019001AB1846FFF7E5FF0390019B0122B8
:10A1E00002FA03F31946039800F069F800BF05B0BE
:10A1F0005DF804FB00B585B0019001AB1846FFF790
:10A20000D1FF0390019B012202FA03F31946039840
:10A2100000F05FF800BF05B05DF804FB00B585B045
:10A22000019001AB1846FFF7BDFF0390039BD3F8E5
:10A2300004350293029BDA43019B012101FA03F3E7
:10A240001A40039BC3F80825019B01229A40029BF8
:10A250001A40039BC3F80C2500BF05B05DF804FB52
:10A2600000B583B001900091009B002B03D10198B1
:10A27000FFF7C0FF02E00198FFF7A8FF00BF03B09F
:10A280005DF804FB00B585B0019001AB1846FFF7FF
:10A2900089FF0390039800F00AF80246019B22FA16
:10A2A00003F303F00103184605B05DF804FB82B028
:10A2B0000190019BD3F80435184602B0704782B074
:10A2C00001900091019B009AC3F8082500BF02B0DD
:10A2D000704782B001900091019B009AC3F80C2551
:10A2E00000BF02B07047000000B585B00190019B2F
:10A2F000032B03D911493A2001F0EEFE104A019BCD
:10A3000013441B781846FFF7BDFF0346002B14BF0C
:10A31000012300238DF80F309DF80F30002B14BF60
:10A3200001230023DBB283F00103DBB203F001035E
:10A33000DBB2184605B05DF804FB00BF4CC2030059
:10A34000A4C2030000B583B00190019B032B03D985
:10A350000749412001F0C0FE064A019B13441B78C7
:10A3600000211846FFF77CFF00BF03B05DF804FB37
:10A370004CC20300A4C2030000B583B00190019B4E
:10A38000032B03D90749472001F0A6FE064A019B8B
:10A3900013441B7801211846FFF762FF00BF03B08A
:10A3A0005DF804FB4CC20300A4C2030000B583B0F7
:10A3B0000023019305E00198FFF7DEFF019B0133C5
:10A3C0000193019B032BF6D900BF00BF03B05DF8DA
:10A3D00004FB00B583B00023019305E00198FFF76B
:10A3E000B1FF019B01330193019B032BF6D900BF01
:10A3F00000BF03B05DF804FB00B583B00190019B82
:10A40000032B03D907495F2001F066FE064A019B32
:10A4100013441B781846FFF701FF00BF03B05DF837
:10A4200004FB00BF4CC20300A4C2030082B0034679
:10A430008DF807309DF8073003F01F0206499DF99B
:10A4400007305B09012000FA02F2203341F8232093
:10A4500000BF02B0704700BF00E100E008B50AF09D
:10A4600087FC034683F00103DBB2002B03D10549CF
:10A47000792001F031FE00F085FA034B00229A703A
:10A4800000BF08BDB0C20300F432002000B583B0A5
:10A4900000230193144B1B78002B02D085230193DA
:10A4A0001CE0114B00229A600F4B00225A600E4BA9
:10A4B00000221A610C4B0022DA600C4800F028FAE6
:10A4C00001900AF055FC034683F00103DBB2002B38
:10A4D00001D000F043FA044B01221A70019B184688
:10A4E00003B05DF804FB00BFF4320020C5A50200F4
:10A4F00084B00190019B1B680393039B002B03D046
:10A50000039B1A68019B1A60039B184604B07047AE
:10A5100000B583B0164B1B78002B04D115494FF4BE
:10A52000857001F0D9FD124BDB68002B04D1114975
:10A5300040F20B1001F0D0FD00238DF807300DF133
:10A5400007031846FDF70AFA094BDB68013B084A86
:10A55000D360074BDB68002B01D1FFF77FFF9DF82D
:10A5600007301846FDF710FA00BF03B05DF804FB92
:10A57000F4320020B0C2030000B585B003468DF868
:10A5800007309DF80730002B02D10C4B039301E0FC
:10A590000B4B03930398FFF7ABFF0290029B002B3A
:10A5A00006D0029B5B689DF8072010469847F1E7AC
:10A5B00000BF00BF05B05DF804FB00BFFC32002007
:10A5C0000433002000B583B003468DF807309DF8B2
:10A5D0000730002B05D10A4B01225A700020FFF7EB
:10A5E000CBFF9DF80730012B05D1054B01229A7056
:10A5F0000120FFF7C1FF00BF03B05DF804FB00BFFF
:10A60000F432002000B583B001900091019B002B33
:10A6100005D1054B01225A700020FFF7ADFF00BFA6
:10A6200003B05DF804FB00BFF432002000B585B034
:10A63000034600918DF807309DF80730032B29D091
:10A64000032B35DC002B02D0012B04D030E000209E
:10A65000FFF7ECFE2DE000238DF80F300DF10F0316
:10A660001846FDF77BF9154B1B7883F00103DBB22D
:10A67000002B01D0FFF70AFF104BDB6801330F4AB4
:10A68000D3600E4B01229A709DF80F301846FDF7EB
:10A690007BF90EE0094B1B78002B04D1084940F2EE
:10A6A000452001F019FD00F059F9FFF731FF00E0F6
:10A6B00000BF00BF05B05DF804FB00BFF43200200E
:10A6C000B0C2030082B003468DF807309DF8073012
:10A6D00003F01F0205499DF907305B09012000FACC
:10A6E00002F241F8232000BF02B0704700E100E011
:10A6F00082B0034600918DF807309DF90730002B9A
:10A700000CDA009BDAB20C499DF8073003F00F0316
:10A71000043B5201D2B20B441A7609E0009BDAB234
:10A7200006499DF907305201D2B20B4483F8002349
:10A7300000BF02B0704700BF00ED00E000E100E0A4
:10A7400082B00190019B1B0B5BB2184602B07047B0
:10A7500000B583B003460A468DF8073013468DF8DE
:10A7600006309DF80630012B03D99DF80630032BE7
:10A770000BD99DF80630042B03D99DF80630072B22
:10A7800003D908496B2001F0A7FC9DF806209DF92C
:10A79000073011461846FFF7ABFF00BF03B05DF866
:10A7A00004FB00BF18C3030000B583B003468DF857
:10A7B00007309DF907301846FFF784FF00BF03B04C
:10A7C0005DF804FB82B003468DF807300F4A9DF90F
:10A7D0000730002B00DA1F335B115BB252F82320E5
:10A7E0009DF90730594203F01F0301F01F0158BFC4
:10A7F0004B425BB222FA03F303F00103002B14BFB8
:10A8000001230023DBB2184602B0704700E100E0EC
:10A8100082B001904FF08042019BC2F8083300BF24
:10A8200002B0704782B003468DF807309DF80730BC
:10A8300003F1804301221A6000BF02B0704784B068
:10A840000346ADF80630BDF8063003F18043002220
:10A850001A60BDF8063003F180431B680393039B25
:10A8600000BF04B0704782B00346ADF80630BDF8B3
:10A87000063003F180431B68002B14BF0123002323
:10A88000DBB2184602B0704782B001904FF08042B0
:10A89000019BC2F8183500BF02B070474FF08043EB
:10A8A000D3F818341B0C03F00103002B14BF012351
:10A8B0000023DBB21846704700B583B006238DF83D
:10A8C00007304FF08040FFF73BFF03461846FFF785
:10A8D00079FF034683F00103DBB2002B13D04FF066
:10A8E0008040FFF72DFF03461A469DF807301946B2
:10A8F0001046FFF72DFF4FF08040FFF721FF034682
:10A900001846FFF751FF00BF03B05DF804FB0000DD
:10A9100000B585B00190019B002B03D10D49A42007
:10A9200001F0DAFB002303930B4B1B79002B02D0C1
:10A930008523039308E0084A019B1360064B01221C
:10A940001A71054B00225A71039B184605B05DF839
:10A9500004FB00BF50C303000833002008B5074BB9
:10A960001B79002B03D10649BD2001F0B5FBFFF791
:10A97000A3FF0120FFF788FF00BF08BD08330020B8
:10A9800050C3030008B50A4B1B79002B03D10949BA
:10A99000F72001F0A1FB0C20FFF744FF00BFFFF7F9
:10A9A0007DFF0346002BFAD100BF00BF08BD00BFEA
:10A9B0000833002050C3030008B54FF48070FFF740
:10A9C00052FF0346002B14D04FF48070FFF737FF7F
:10A9D0000120FFF71DFF114B5B7983F00103DBB210
:10A9E000002B06D00D4B01225A710C4B1B68002026
:10A9F00098474FF48270FFF736FF0346002B0AD0CA
:10AA00004FF48270FFF71BFF0220FFF701FF034B9B
:10AA10001B680120984700BF08BD00BF0833002015
:10AA200082B003468DF807309DF8073003F01F020F
:10AA300005499DF907305B09012000FA02F241F84F
:10AA4000232000BF02B0704700E100E082B003465F
:10AA500000918DF807309DF90730002B0CDA009B30
:10AA6000DAB20C499DF8073003F00F03043B5201A2
:10AA7000D2B20B441A7609E0009BDAB206499DF97E
:10AA800007305201D2B20B4483F8002300BF02B05A
:10AA9000704700BF00ED00E000E100E000B583B0CA
:10AAA00003460A468DF8073013468DF806309DF8A8
:10AAB0000630012B03D99DF80630032B0BD99DF8E6
:10AAC0000630042B03D99DF80630072B03D908491B
:10AAD0006B2001F001FB9DF806209DF9073011461F
:10AAE0001846FFF7B3FF00BF03B05DF804FB00BFDB
:10AAF000B4C3030000B583B003468DF807309DF959
:10AB000007301846FFF78CFF00BF03B05DF804FB69
:10AB100000B583B00346ADF80630BDF806301846E0
:10AB200000F026F803461B68012B0CBF012300230D
:10AB3000DBB2184603B05DF804FB00B585B00346F0
:10AB4000ADF80630BDF80630184600F011F803469F
:10AB50001A4600231360BDF80630184600F008F8C6
:10AB600003461B680393039B00BF05B05DF804FB1D
:10AB700082B00346ADF80630BDF8063003F18043DD
:10AB800003F5C043184602B07047000082B0019040
:10AB9000034A019BC2F8043300BF02B0704700BFF4
:10ABA0000060004082B00190034BD3F80423019B66
:10ABB0001340184602B070470060004082B0019018
:10ABC000084A019B03F5A27352F82330054943F06C
:10ABD0000102019B03F5A27341F8232000BF02B0DC
:10ABE000704700BF0060004084B00390029113469C
:10ABF0008DF80730144A039B03F5A27352F82330F3
:10AC0000114923F4473323F44073039A02F5A272E7
:10AC100041F822300C4A039B03F5A27352F823201B
:10AC2000029B1B0203F4F8519DF807301B0403F448
:10AC300040330B4304491A43039B03F5A27341F8C5
:10AC4000232000BF04B070470060004082B0019034
:10AC5000054A019B03F5A27352F823301B0A03F047
:10AC60001F03184602B070470060004082B0019098
:10AC7000064A019B03F5A27352F823301B0C03F024
:10AC80000303DBB2184602B0704700BF006000400B
:10AC900000B583B00190019B1B681F2B04D90549A7
:10ACA00040F2CD1001F018FA4FF0A043184603B05F
:10ACB0005DF804FBE4C3030000B585B001900846CD
:10ACC00011461A4603468DF803300B468DF80230C4
:10ACD00013468DF8013001AB1846FFF7D9FF0390FA
:10ACE0009DF803209DF802305B001A439DF8013067
:10ACF0009B001A439DF818301B0242EA03019DF89D
:10AD00001C301B04019A1943039B02F5E07243F8BF
:10AD1000221000BF05B05DF804FB00B585B00390BC
:10AD20000B468DF80B309DF80B300022019200226B
:10AD30000092002200210398FFF7BEFF00BF05B07C
:10AD40005DF804FB00B585B0019001AB1846FFF734
:10AD50009FFF0390019A039B02F5E07253F82230A3
:10AD600023F002030293019A039B02F5E072029919
:10AD700043F8221000BF05B05DF804FB00B585B0B4
:10AD800001900B468DF8033001AB1846FFF780FFAA
:10AD90000390019A039B02F5E07253F82230019A66
:10ADA00023F44031039B02F5E07243F82210019A2C
:10ADB000039B02F5E07253F822309DF80320120441
:10ADC0001146019A1943039B02F5E07243F82210E1
:10ADD00000BF05B05DF804FB00B585B0019001AB84
:10ADE0001846FFF755FF0390039800F020F802463D
:10ADF000019B22FA03F303F00103184605B05DF846
:10AE000004FB00B585B0019001AB1846FFF740FF89
:10AE10000390019A039B02F5E07253F822301B0C59
:10AE200003F00303DBB2184605B05DF804FB82B003
:10AE30000190019BD3F81035184602B0704700000E
:10AE400000B587B00390029101924FF0A0430493A4
:10AE5000039A029B1344012B04D9124940F2FD20AE
:10AE600001F03AF9039B059311E0059B9B0006AAAC
:10AE7000134453F8083C1846FFF7D9FF0246019BDC
:10AE80001A60019B04330193059B01330593039AD8
:10AE9000029B1344059A9A42E7D300BF00BF07B054
:10AEA0005DF804FBE4C3030084B001900091009BB3
:10AEB0000393019BDB080293019B03F007030193BB
:10AEC0000122019B02FA03F30399029A0A441278C1
:10AED0001340184604B0704784B001900091009B65
:10AEE0000393019BDB080293019B03F0070301938B
:10AEF000039A029B13441B785AB20121019B01FA69
:10AF000003F35BB2134359B2039A029B1344CAB2D0
:10AF10001A7000BF04B0704782B001900C4A019BC8
:10AF20001344303393F90030002B09DB084A019BAE
:10AF30001344303393F90030072B01DC012300E088
:10AF4000002303F00103DBB2184602B0704700BFD4
:10AF50001033002082B00190064A019B1344303325
:10AF600093F90030072BCCBF01230023DBB2184636
:10AF700002B070471033002082B00190064A019B56
:10AF80001344303393F90030DB43DBB2DB09DBB22F
:10AF9000184602B0704700BF1033002084B0039001
:10AFA000029101928DF80330029B59B20E4A039B25
:10AFB000134430330A461A700B49029B019A41F838
:10AFC00023209DF8033083F00103DBB2002B08D06F
:10AFD000029B083B039A51B2034A13440A4683F882
:10AFE000502000BF04B070471033002082B00190A1
:10AFF000044A019B13443033FF221A7000BF02B091
:10B00000704700BF1033002000B583B001900449A1
:10B010000198FFF761FF00BF03B05DF804FB00BFBC
:10B020006433002082B00190044A019B1344303302
:10B0300093F90030184602B0704700BF103300206B
:10B0400082B00190034A019B52F82330184602B0A7
:10B05000704700BF1033002000B589B00390029103
:10B0600013468DF80730FF238DF81F309DF8073009
:10B07000002B01D0002300E0082305939DF8073042
:10B08000002B01D0082300E00C230493059B0693BA
:10B0900014E00F4A069B52F82330B3F1FF3F0AD168
:10B0A0009DF80730029A06990398FFF777FF069BF1
:10B0B0008DF81F3006E0069B01330693069A049B29
:10B0C0009A42E6D39DF91F30184609B05DF804FB9B
:10B0D0001033002082B003468DF807309DF807300A
:10B0E000094A4FF0FF3142F823109DF80730072B33
:10B0F00007D99DF80730083B034A1344FF2283F821
:10B10000502000BF02B070471033002000B583B05C
:10B11000254B93F85830002B03D008230193019B53
:10B120003EE000238DF8033009E09DF80330184617
:10B13000FFF75CFF9DF8033001338DF803309DF875
:10B1400003301F2BF1D900238DF8033009E09DF85F
:10B1500003301846FFF7BEFF9DF8033001338DF82A
:10B1600003309DF803300B2BF1D9042200210F4846
:10B170000FF09CFC06210620FFF790FC0620FFF74D
:10B18000B9FC4FF4BE70FFF7D8FC4FF00040FFF75A
:10B19000FDFC054B012283F8582000230193019BFD
:10B1A000184603B05DF804FB103300206433002020
:10B1B000044B93F85830002B14BF01230023DBB25B
:10B1C000184670471033002000B587B003900291F5
:10B1D0000192039B1F2B04D9364940F2072000F04F
:10B1E0007BFF002305930398FFF7C6FE0346002B61
:10B1F00002D00823059357E0029B9B78C3F34003DA
:10B20000DBB21A4601990398FFF726FF03468DF833
:10B2100013309DF91330B3F1FF3F43D0029B9B786D
:10B22000C3F38003DBB283F00103DBB2002B13D046
:10B23000029B9B7803F00103DBB2002B03D0039841
:10B24000FFF780FD05E0029B5B7819460398FFF746
:10B2500064FD0398FFF7D8FE029B9B7803F002037E
:10B26000DBB2002B08D09DF91300029B1B781A4615
:10B270000399FFF7B9FC17E09DF91330083B0E4A1C
:10B28000134493F95010029B1B789B015AB29DF90D
:10B290001330083B0A4351B2074A13440A4683F865
:10B2A000502001E004230593059B184607B05DF884
:10B2B00004FB00BF1CC403001033002000B589B09C
:10B2C00001900B468DF80330019B1F2B04D93D499B
:10B2D00040F2372000F000FF0198FFF74DFE0346D3
:10B2E000002B04D137494FF40E7000F0F5FE0198A1
:10B2F000FFF730FE0346002B2FD00198FFF792FE98
:10B300000346083B304A134493F950308DF80F3010
:10B310009DF80F309B098DF80E309DF80E30032BF1
:10B320000BD10198FFF758FD0346002B01D00323F2
:10B3300000E002238DF81F3008E09DF80E30012B4D
:10B3400001D1022300E003238DF81F309DF81F3048
:10B3500019460198FFF712FD30E00198FFF7DCFD78
:10B360000346002B2AD00198FFF75CFE03460693A4
:10B37000069B9BB240339BB29B00ADF81630069BF8
:10B380001846FFF71BFCBDF816301846FFF7D5FB33
:10B390009DF80330002B11D00198FFF743FE0346C0
:10B3A0001846FFF74DFE0490049B002B06D00122A7
:10B3B000069B02FA03F31846FFF7E8FB00BF09B04B
:10B3C0005DF804FB1CC403001033002000B595B0E9
:10B3D00000231093002303934FF48073ADF83A30A9
:10B3E0000123129300230F9321E0BDF83A30184651
:10B3F000FFF78EFB0346002B0ED01298FFF7D2FB0F
:10B400000346002B08D0BDF83A301846FFF795FBED
:10B41000109A129B13431093129B5B001293BDF87A
:10B420003A300433ADF83A300F9B01330F930F9B42
:10B43000072BDAD94FF4BE70FFF76AFB0346002BE7
:10B440000DD04FF4BE70FFF778FB109B43F0004324
:10B45000109303AB1A4601210020FFF7F1FC109B6B
:10B46000DBB2002B29D00123129300230F9321E09C
:10B47000129A109B1340002B16D00F98FFF7E6FB93
:10B480000D900F98FFF7F2FB03468DF833300F98BD
:10B49000FFF7D6FD0B900B9B002B05D09DF83320BA
:10B4A0000B9B11460D989847129B5B0012930F9BC4
:10B4B00001330F930F9B072BDAD9109B002B80F2DF
:10B4C000EE8000238DF84F30002302930023119368
:10B4D0000AE0119B9B0014AA13444FF0FF3243F87B
:10B4E0004C2C119B01331193119B002BF1D00023A5
:10B4F0008DF84F3000230F9378E06B4A0F9B134475
:10B50000503393F900308DF82B309DF82B3023F019
:10B51000C0030993644A0F9B1344503393F90030DE
:10B52000B3F1FF3F5FD001AB19460998FFF7BCFCB0
:10B530000346002B57D09DF82B309B098DF8233004
:10B540000998FFF76FFD03461846FFF779FD07904E
:10B55000079B002B03D19DF82330032B43D19DF88B
:10B560002330032B04D102AB19460998FFF7B4FC32
:10B570000998FFF746FC03468DF81B3003AB1946CC
:10B580000998FFF791FC0590059B002B03D09DF8CF
:10B590001B30022B06D0059B002B24D19DF81B30BD
:10B5A000032B20D19DF82330032B13D19DF81B30A2
:10B5B000022B01D1032300E002238DF813309DF804
:10B5C000133019460998FFF7D9FB9DF84F30013326
:10B5D0008DF84F30079B002B05D09DF82320079B4B
:10B5E0001146099898470F9B01330F930F9B032B2C
:10B5F00083D99DF84F30002B4CD001238DF84E306D
:10B600006B461A4601210020FFF71AFC0023119314
:10B6100014E0119B9B0014AA134453F8502C119B67
:10B620009B0014A90B4453F8443C9A4203D00023D6
:10B630008DF84E3005E0119B01331193119B002BC7
:10B64000E7D09DF84E30002B03D000238DF84F300B
:10B6500020E0002311931AE0119B9B0014AA1344CD
:10B6600053F8502C119B9B0014A90B4443F8442C15
:10B67000119B9B0014AA134453F8482C119B9B0068
:10B6800014A90B4443F84C2C119B01331193119BCB
:10B69000002BE1D09DF84F30002B7FF428AF00BF86
:10B6A00015B05DF804FB00BF1033002008B5064B51
:10B6B0001B68002B03D10549512000F00DFD024B02
:10B6C0001B68984700BF08BD6C33002084C403008A
:10B6D00084B001900B46ADF80230BDF80230019AFB
:10B6E000134400221A60BDF80230019A13441B680B
:10B6F0000393039B00BF04B0704782B001900B46D8
:10B70000ADF80230BDF80230019A13441B68002BDB
:10B7100014BF01230023DBB2184602B0704700B506
:10B7200083B0019000914FF488710198FFF7E5FF15
:10B730000346002B12D04FF488710198FFF7C8FF21
:10B74000009B5B7903F00403002B07D0009B1B6870
:10B75000002B03D0009B1B68012098474FF48A718F
:10B760000198FFF7CAFF0346002B12D04FF48A71ED
:10B770000198FFF7ADFF009B5B7903F00803002BF6
:10B7800007D0009B1B68002B03D0009B1B68022086
:10B7900098474FF48E710198FFF7AFFF0346002BD7
:10B7A00012D04FF48E710198FFF792FF009B5B79E6
:10B7B00003F01003002B07D1009B1B68002B03D064
:10B7C000009B1B68002098474FF482710198FFF797
:10B7D00094FF0346002B0FD04FF482710198FFF7BE
:10B7E00077FF009B01221A71009B1B68002B03D07E
:10B7F000009B1B680320984700BF03B05DF804FB63
:10B8000008B503490348FFF78AFF00BF08BD00BF22
:10B810007433002000C0014008B503490348FFF716
:10B820007EFF00BF08BD00BF7C3300200010024037
:10B8300000B583B00C4B1B78002B0FD00023019375
:10B8400008E0019B022B02D00198FEF795FD019BB9
:10B8500001330193019B032BF3D901E0FEF7A6FD11
:10B8600000BF03B05DF804FB8C3300202DE9F04FDE
:10B8700087B003468DF80F3000230593002304930F
:10B88000D14B1B78002B04D0CF4B00221A70FFF74E
:10B89000CFFF9DF80F30172B00F2298201A252F83A
:10B8A00023F000BF05B902001DB902001DB9020056
:10B8B000AFB902003DBA0200B1BA02003DBB0200BE
:10B8C0005DBB02006DBB02008BBB0200A9BB020086
:10B8D000D5BB0200F3BB020001BC020001BC0200A8
:10B8E00001BC020001BC020001BC020091BC0200CC
:10B8F0009FBC0200B3BC0200C7BC0200E1BC020056
:10B90000E1BC0200FFF794FFB04B18460EF014FFA5
:10B910000590AF4A9DF80F301370E9E10020FEF763
:10B92000E3FC0346002B0DD00020FEF725FD9DF81B
:10B930000F30022B02D14FF4E16301E04FF47A6340
:10B9400004930BE00020FEF7FDFC9DF80F30022B66
:10B9500001D1C82301E04FF4C87304939C4A9DF8B9
:10B960000F301370994C049B18464FF000014FF0B4
:10B9700000024FF00003CB0343EA5043C20312F529
:10B98000FA71009143F1000301934FF47A724FF082
:10B990000003DDE900010EF041FF02460B461346AD
:10B9A0000022194620460EF091FE0590A0E10020ED
:10B9B000FEF79AFC0346002B0DD00020FEF7DCFCBE
:10B9C0009DF80F30032B02D14FF4487301E04FF480
:10B9D0007A6304930BE00020FEF7B4FC9DF80F306F
:10B9E000032B01D1C82301E04FF4C8730493784AB4
:10B9F0009DF80F301370754C049B18464FF00001F2
:10BA00004FF000024FF00003CB0343EA5043C20360
:10BA100012F5FA7A43F1000B4FF47A724FF00003FB
:10BA2000504659460EF0FAFE02460B4613460022D7
:10BA3000194620460EF04AFE059059E10020FEF717
:10BA400053FC0346002B06D00020FEF795FC4FF474
:10BA50007A63049305E00020FEF774FC4FF4C8738A
:10BA600004935B4A9DF80F301370584C049B1846A2
:10BA70004FF000014FF000024FF00003CB0343EA08
:10BA80005043C20312F5FA7843F100094FF47A7279
:10BA90004FF00003404649460EF0C0FE02460B46FA
:10BAA00013460022194620460EF010FE05901FE1B5
:10BAB0000020FEF719FC0346002B0CD00020FEF7F7
:10BAC0005BFC9DF80F30052B01D1C82301E04FF43A
:10BAD0007A6304930BE00020FEF734FC9DF80F30EE
